:020000040800F2
:1000000098D5002045010008F3CB000829A300087B
:1000100059C50008B92300084BFA00080000000089
:1000200000000000000000000000000059EA000885
:100030008D4100080000000011D2000849EC0008C2
:100040005F0100085F0100085F010008F9DB00089C
:100050005F0100085F0100085F0100081D480008FB
:100060005F0100085F0100085F0100085F010008F0
:100070005F0100085F0100085F0100085F010008E0
:100080005F0100085F0100085F0100085F010008D0
:100090005F0100085F0100085F0100085F010008C0
:1000A0005F0100085F0100085F0100085F010008B0
:1000B0005F0100085F01000865F200085F010008A9
:1000C0005F0100085F0100085F0100085F01000890
:1000D0005F01000889F700085F0100085F01000860
:1000E0005F0100085F0100085F0100085F01000870
:1000F0005F0100085F0100085F0100085F01000860
:100100005F0100085F0100085F0100085F0100084F
:100110005F0100085F0100085F0100085F0100083F
:100120005F0100085F0100085F0100085F0100082F
:10013000DFF80CD001F0E4FD004800471DE701089E
:1001400098D500200648804706480047FEE7FEE7AE
:10015000FEE7FEE7FEE7FEE7FEE7FEE7FEE7FEE777
:1001600089EC0008310100082DE9F04F4FF0000C38
:100170004FF0000301EB9C5EBEF90250BEF9004057
:100180000EF5806EBEF90290BEF900800EF5806E0D
:10019000BEF90270BEF900600EF5806EBEF902B0C5
:1001A000BEF900A00EF5806ED044D944A8EB4A0AEF
:1001B000A9EB4B0B4FEAA4044FEAA50504EBA604F8
:1001C00005EBA705A4EB6606A5EB670704EBA804FF
:1001D00005EBA905A4EB6808A5EB690906EBAB06DE
:1001E000A7EBAA07A6EB6B0B07EB6A0A458020F882
:1001F000044B478020F8046BA0F8029020F8048B91
:10020000A0F802A020F804BB03F1010393FAA3FCB9
:10021000B3F5807FAED1A0EB82014FF0100312093D
:100220000FF2341000F1000006B403EB430C6144FC
:10023000A2F5803202EB8332B1F90250B1F90040ED
:10024000A1EB0301B0F902B0B0F900A000F1040085
:10025000A5EB040E0EFB0BFC0AEB4B0E05FB0ACBC9
:1002600004FB0ECAB1F90250B1F90040A1EB030141
:10027000B0F90290B0F9008000F10400A5EB040E83
:100280000EFB09FC08EB490E05FB08C904FB0EC870
:10029000B1F90250B1F90040A1EB0301B0F90270CD
:1002A000B0F9006000F10400A5EB040E0EFB07FCA2
:1002B00006EB470E05FB06C704FB0EC6B1F902505C
:1002C000B1F9004001F10001D044D944A8EB4A0A39
:1002D000A9EB4B0B4FEAA4044FEAA50504EB264417
:1002E00005EB2745A4EBE636A5EBE73704EB2844FE
:1002F00005EB2945A4EBE838A5EBE93906EB2B46DD
:10030000A7EB2A47A6EBEB3B07EBEA3A4D800C80C4
:1003100019444F800E801944A1F80290A1F8008082
:100320001944A1F802A021F804BBB2F5803283DAA7
:1003300003EB430C6144A2F101025FEA024E18BFD5
:10034000A0EB0C007FF476AF06BC4FEA8303920863
:100350007FF46AAFBDE8F08F00400000004000006D
:10036000004000005DDD213BA3227E180000412DEE
:100370007EA5412D0000412D00C000405DDD82E7DB
:100380005DDD213B7EA5412D0040000000400000C6
:1003900000400000AA2A94126B39460649327C0CB0
:1003A000A8118E2349327C0CA3227E1821F77931C3
:1003B000AA2A9412A8118E235DDD213BA3227E1868
:1003C0000000412D95C6B13F461A2B1E58EE373519
:1003D000BEB4C53EA8118E235DDD213B63A97138F3
:1003E000DF089A28B7CDC53E7EA5412D0000412DDE
:1003F00000C0004063A92B1E21F77931BEB4C53E71
:10040000BEB47C0C58EE373561AC213B95C6BAF9C9
:10041000BAE571383BA737355DDD82E75DDD213B0D
:100420007EA5412D21F766D756D53F3D3BA78E23AC
:10043000A811C9CAB7CDC53E61AC7E18AA2AC1C2EF
:1004400095C6B13FBEB47C0C0040000000400000E7
:10045000004000001E3BB504693E9201C83C2403E5
:10046000EB356409C83C24036B3946066C30060E34
:100470001E3BB504EB356409AA2A94126B39460673
:1004800049327C0CAE240917AF37D607882E8D0F62
:100490007E1E5D1BEB356409AA2A941224188C1F5A
:1004A0001E34F10AB3269015A8118E2349327C0C14
:1004B000A3227E18140B60276C30060E7E1E5D1B77
:1004C0007104FB2A882E8D0F461A2B1EC7FD5A2E4B
:1004D0009D2C1211FE15E72021F77931AA2A9412DA
:1004E000A8118E2387F05334B2281314480D202608
:1004F00002EAE536B3269015DF089A289CE32B39EB
:10050000AE2409177104FB2A5DDD213BA3227E186E
:100510000000412D4ED7C53C9320EF198FFB6C2F67
:1005200078D1153E7E1E5D1B21F77931E2CB0F3F5E
:10053000641CC61CB8F2683395C6B13F461A2B1E20
:1005400058EE373597C1FB3F24188C1F02EAE53679
:10055000F0BCEC3FFE15E720BAE57138A6B8853F40
:10056000D5133D2282E1DB39BEB4C53EA8118E23EE
:100570005DDD213B40B1AF3D790FDA244DD9423CDE
:100580002EAE423C480D202656D53F3D8EAB823ADA
:10059000140B602778D1153E63A97138DF089A28BB
:1005A000B7CDC53EB1A71236A906CE2915CA4F3F11
:1005B00078A668337104FB2A95C6B13FBCA5763096
:1005C0003902212C38C3EC3F7EA5412D0000412D7E
:1005D00000C00040BCA5CE29C7FD5A2EF0BCEC3FA0
:1005E00078A620268FFB6C2F09BAB13FB1A73D2218
:1005F00057F976304DB74F3F63A92B1E21F779315C
:10060000BEB4C53E8EABEF19ECF474325EB2153E4B
:100610002EAE9015B8F268332DB03F3D40B11211A7
:1006200087F053342EAE423CBEB47C0C58EE3735C6
:1006300061AC213BA6B8D6072BEC1236C8AADB3931
:10064000F0BC240302EAE53663A9713897C16EFE57
:10065000DCE7B03734A8E53695C6BAF9BAE57138A3
:100660003BA73735E2CB0FF59CE32B3978A66833EF
:1006700078D173F082E1DB39EDA579314ED7EDEB1E
:100680006DDF823A99A56C2F5DDD82E75DDD213B50
:100690007EA5412D9CE33AE352DBB63B99A5FB2AAC
:1006A00002EA19DF4DD9423CEDA59A2887F026DBF6
:1006B0004ED7C53C78A6202621F766D756D53F3DB4
:1006C0003BA78E23C7FDDFD363D3AF3D34A8E7201C
:1006D000710494D078D1153E63A92B1E140B8CCDD8
:1006E00094CF723EC8AA5D1BA811C9CAB7CDC53E3A
:1006F00061AC7E18241850C8E2CB0F3F2EAE901587
:100700007E1E25C615CA4F3F2DB09412AE244AC492
:1007100051C8853F5EB28D0FAA2AC1C295C6B13FAE
:10072000BEB47C0C6C308EC1E2C4D43F4DB76409BA
:10073000EB35B1C038C3EC3F09BA46061E3B2CC0AE
:1007400097C1FB3FF0BC24030040000000400000C4
:1007500000400000D03E2E019B3F6500363FC9009F
:100760009A3D5B02363FC900693E92015F3C8803B7
:10077000D03E2E019A3D5B021E3BB504693E9201BC
:10078000C83C2403D939E205023EF701F43BED03EE
:100790008E380E079A3D5B021E3BB5043F37390881
:1007A000313DC002463A7E05EB356409C83C24035E
:1007B0006B39460692348E0A5F3C88038E380E07EA
:1007C0003433B70BF43BED03AF37D607D231DF0C30
:1007D0008A3B5104CE369D086C30060E1E3BB50494
:1007E000EB356409022F2B0FB23A1A0505352B0A97
:1007F000932D5010463A7E051E34F10A212C7311B8
:10080000D939E2053433B70BAA2A94126B3946065C
:1008100049327C0C3129B413FD38AA065B31410DF5
:10082000B327D2148E380E076C30060E3226EE1522
:100830001F3872077B2FCA0EAE240917AF37D607B1
:10084000882E8D0F262321183F373908932D5010FD
:100850009C213719CE369D089D2C12110E204B1A63
:100860005D360109A42BD3117E1E5D1BEB35640997
:10087000AA2A9412EB1C6C1C7835C709AF295413B3
:10088000561B791D05352B0AB2281314BE19841E78
:1008900092348E0AB327D21424188C1F1E34F10A06
:1008A000B326901588169120A933540BB1254C1608
:1008B000EA1493213433B70BAE2409174A1392225A
:1008C000BF321A0CA923C417A8118E2349327C0CFD
:1008D000A3227E1805108824D231DF0C9C21371901
:1008E000610E7E255B31410D9320EF19BB0C712603
:1008F000E430A40D891FA71A140B60276C30060E74
:100900007E1E5D1B6D094C28F42F680E721D121C93
:10091000C40735297B2FCA0E641CC61C1B061A2A65
:10092000022F2B0F561B791D7104FB2A882E8D0F69
:10093000461A2B1EC702D82B0E2EEE0F3519DC1EC1
:100940001C01B22C932D501024188C1F72FF882D7F
:10095000182DB11011173A20C7FD5A2E9D2C1211D7
:10096000FE15E7201DFC282F212C7311EA1493217A
:1009700073FAF22FA42BD311D5133D22CAF8B83045
:10098000282B3412BF12E72221F77931AA2A9412B8
:10099000A8118E2379F536322D2AF41291103524C0
:1009A000D2F3EF32AF295413790FDA242CF2A333A8
:1009B0003129B413610E7E2587F05334B228131405
:1009C000480D2026E3EEFF34332873142E0CC12685
:1009D00041EDA535B327D214140B6027A1EB48369F
:1009E00033273115FA09FE2702EAE536B3269015BA
:1009F000DF089A2865E87E373226EE15C4073529C8
:100A0000CBE61238B1254C16A906CE2932E5A1381D
:100A10002F25AB168D05652A9CE32B39AE240917CB
:100A20007104FB2A08E2B0392B24661755038F2B7B
:100A300077E0303AA923C4173902212CE9DEAB3A1A
:100A4000262321181C01B22C5DDD213BA3227E1838
:100A50000000412DD5DB923B1F22DB18E4FECF2D99
:100A60004FDAFD3B9C213719C7FD5A2ECDD8643C87
:100A700017219319ABFCE42E4ED7C53C9320EF19F8
:100A80008FFB6C2FD3D5213D0E204B1A73FAF22F1A
:100A90005CD4783D891FA71A57F97630E8D2C93D52
:100AA000041F021B3CF8F93078D1153E7E1E5D1BF9
:100AB00021F779310CD05C3EF81DB81B06F6F831F1
:100AC000A5CE9D3E721D121CECF4743241CDD83E71
:100AD000EB1C6C1CD2F3EF32E2CB0F3F641CC61C44
:100AE000B8F2683388CA403FDD1B201D9FF1DF3319
:100AF00032C96B3F561B791D87F05334E1C7913FD4
:100B0000CE1AD31D6FEFC63495C6B13F461A2B1EC1
:100B100058EE37354EC5CC3FBE19841E41EDA53584
:100B20000CC4E13F3519DC1E2BEC1236CFC2F13F6D
:100B3000AD18341F16EB7D3697C1FB3F24188C1F70
:100B400002EAE53665C000409B17E31FEFE84B372C
:100B500038BFFF3F11173A20DCE7B03711BEF83F2E
:100B600088169120CBE61238F0BCEC3FFE15E7204A
:100B7000BAE57138D4BBDB3F74153D21AAE4CF3808
:100B8000BFBAC43FEA1493219CE32B39AFB9A73F06
:100B90005F14E8218EE28439A6B8853FD5133D2243
:100BA00082E1DB39A2B75D3F4A13922277E0303A07
:100BB000A5B6303FBF12E7226DDF823AAFB5FD3EEA
:100BC00034123B2364DED33ABEB4C53EA8118E2353
:100BD0005DDD213BD5B3883E1D11E22357DC6D3B23
:100BE000F2B2453E9110352452DBB63B15B2FC3DC6
:100BF000051088244FDAFD3B40B1AF3D790FDA2470
:100C00004DD9423C71B05B3DED0E2C254DD8853C55
:100C1000A9AF033D610E7E254ED7C53CE8AEA53C8D
:100C2000D40DCF2551D6033D2EAE423C480D202693
:100C300056D53F3D7BADDA3BBB0C71265CD4783D8D
:100C4000D0AC6D3B2E0CC12663D3AF3D2BACFA3A32
:100C5000A10B11276DD2E33D8EAB823A140B6027B6
:100C600078D1153EF8AA063A870AAF2785D0453EC7
:100C70006AAA8439FA09FE2794CF723EE3A9FD38A7
:100C80006D094C28A5CE9D3E63A97138DF089A28CE
:100C9000B7CDC53EEBA8E1375208E728CCCCEB3EF8
:100CA0007BA84B37C4073529E2CB0F3F12A8B136DA
:100CB00036078129FBCA303FB1A71236A906CE29D3
:100CC00015CA4F3F57A76E351B061A2A32C96B3F0C
:100CD00005A7C6348D05652A51C8853FBBA61934C2
:100CE000FF04B02A72C79C3F78A668337104FB2AC0
:100CF00095C6B13F3EA6B232E303452BBAC5C43F09
:100D00000BA6F83155038F2BE2C4D43FE0A539314F
:100D1000C702D82B0CC4E13FBCA576303902212C88
:100D200038C3EC3FA1A5AF2FAA016A2C66C2F53FDC
:100D30008DA5E42E1C01B22C97C1FB3F81A5152E79
:100D40008E00FA2CCAC0FF3F7EA5412D0000412D28
:100D500000C0004081A56A2C72FF882D38BFFF3F7C
:100D60008DA58F2BE4FECF2D73BEFB3FA1A5B02A2E
:100D700056FE152EB0BDF53FBCA5CE29C7FD5A2E97
:100D8000F0BCEC3FE0A5E72839FD9F2E32BCE13FE7
:100D90000BA6FE27ABFCE42E77BBD43F3EA6112763
:100DA0001DFC282FBFBAC43F78A620268FFB6C2FCE
:100DB00009BAB13FBBA62C2501FBAF2F56B99C3F0A
:100DC00005A7352473FAF22FA6B8853F57A73B2312
:100DD000E5F93430F8B76B3FB1A73D2257F97630CB
:100DE0004DB74F3F12A83D21CAF8B830A5B6303FE5
:100DF0007BA83A203CF8F93000B60F3FEBA8341F2F
:100E0000AEF739315EB5EB3E63A92B1E21F7793180
:100E1000BEB4C53EE3A9201D93F6B93122B49D3E70
:100E20006AAA121C06F6F83188B3723EF8AA021BB1
:100E300079F53632F2B2453E8EABEF19ECF47432EE
:100E40005EB2153E2BACDB185FF4B232CDB1E33DA0
:100E5000D0ACC417D2F3EF3240B1AF3D7BADAB168F
:100E600045F32C33B5B0783D2EAE9015B8F268330B
:100E70002DB03F3DE8AE73142CF2A333A9AF033D70
:100E8000A9AF54139FF1DF3328AFC53C71B03412C2
:100E900013F11934A9AE853C40B1121187F05334D7
:100EA0002EAE423C15B2EE0FFBEF8D34B6ADFD3BDE
:100EB000F2B2CA0E6FEFC63441ADB63BD5B3A40D46
:100EC000E3EEFF34D0AC6D3BBEB47C0C58EE37354E
:100ED00061AC213BAFB5540BCCED6E35F6ABD33ADC
:100EE000A5B62B0A41EDA5358EAB823AA2B7010912
:100EF000B6ECDC3529AB303AA6B8D6072BEC123667
:100F0000C8AADB39AFB9AA06A1EB48366AAA843968
:100F1000BFBA7E0516EB7D360FAA2B39D4BB510420
:100F20008CEAB136B7A9CF38F0BC240302EAE53623
:100F300063A9713811BEF70178E9183712A9123880
:100F400038BFC900EFE84B37C5A8B03765C09BFF75
:100F500065E87E377BA84B3797C16EFEDCE7B0377C
:100F600034A8E536CFC240FD53E7E137F1A77D361F
:100F70000CC413FCCBE61238B1A712364EC5E6FA04
:100F800042E6423874A7A53595C6BAF9BAE5713874
:100F90003BA73735E1C78EF832E5A13805A7C6343F
:100FA00032C963F7AAE4CF38D3A6533488CA39F6D6
:100FB00023E4FD38A4A6DF33E2CB0FF59CE32B3905
:100FC00078A6683341CDE6F315E3583950A6EF32E1
:100FD000A5CEBFF28EE284392CA674320CD098F1E3
:100FE00008E2B0390BA6F83178D173F082E1DB3931
:100FF000EDA57931E8D24FEFFCE0063AD3A5F93000
:101000005CD42DEE77E0303ABCA57630D3D50CED2C
:10101000F2DF593AA9A5F22F4ED7EDEB6DDF823AF8
:1010200099A56C2FCDD8CFEAE9DEAB3A8DA5E42E99
:101030004FDAB4E964DED33A85A55A2ED5DB9AE8B7
:10104000E1DDFA3A7FA5CF2D5DDD82E75DDD213B55
:101050007EA5412DE9DE6DE6DADC473B7FA5B22CAB
:1010600077E059E557DC6D3B85A5212C08E248E483
:10107000D5DB923B8DA58F2B9CE33AE352DBB63B4D
:1010800099A5FB2A32E52DE2D1DADA3BA9A5652A3A
:10109000CBE624E14FDAFD3BBCA5CE2965E81DE097
:1010A000CED9203CD3A5352902EA19DF4DD9423CDF
:1010B000EDA59A28A1EB18DECDD8643C0BA6FE273F
:1010C00041ED19DD4DD8853C2CA66027E3EE1EDCF2
:1010D000CDD7A53C50A6C12687F026DB4ED7C53C10
:1010E00078A620262CF231DACFD6E43CA4A67E25C1
:1010F000D2F33FD951D6033DD3A6DA2479F551D89E
:10110000D3D5213D05A7352421F766D756D53F3DD8
:101110003BA78E23CAF87FD6D8D45B3D74A7E722BD
:1011200073FA9BD55CD4783DB1A73D221DFCBBD49E
:10113000DFD3933DF1A79321C7FDDFD363D3AF3D49
:1011400034A8E72072FF06D3E8D2C93D7BA83A2035
:101150001C0131D26DD2E33DC5A88C1FC70261D1FD
:10116000F2D1FC3D12A9DC1E710494D078D1153E59
:1011700063A92B1E1B06CCCFFED02D3EB7A9791D2F
:10118000C40707CF85D0453E0FAAC61C6D0947CEC0
:101190000CD05C3E6AAA121C140B8CCD94CF723E0C
:1011A000C8AA5D1BBB0CD4CC1CCF883E29ABA71AA8
:1011B000610E21CCA5CE9D3E8EABEF19051073CBF1
:1011C0002ECEB13EF6AB3719A811C9CAB7CDC53E70
:1011D00061AC7E184A1324CA41CDD83ED0ACC417A6
:1011E000EA1483C9CCCCEB3E41AD09178816E8C898
:1011F00057CCFD3EB6AD4C16241850C8E2CB0F3F7D
:101200002EAE9015BE19BEC76ECB203FA9AED2142C
:10121000561B31C7FBCA303F28AF1314EB1CA8C6BE
:1012200088CA403FA9AF54137E1E25C615CA4F3F3A
:101230002DB094120E20A7C5A3C95D3FB5B0D31140
:101240009C212DC532C96B3F40B112112623B9C470
:10125000C1C8783FCDB15010AE244AC451C8853FB3
:101260005EB28D0F3226E0C3E1C7913FF2B2CA0EE3
:10127000B3277BC372C79C3F88B3060E31291CC3BA
:1012800003C7A73F22B4410DAA2AC1C295C6B13FE8
:10129000BEB47C0C212C6DC227C6BB3F5EB5B70B1C
:1012A000932D1DC2BAC5C43F00B6F10A022FD3C1A7
:1012B0004EC5CC3FA5B62B0A6C308EC1E2C4D43FDC
:1012C0004DB76409D2314FC176C4DB3FF8B79D08F2
:1012D000343315C10CC4E13FA6B8D6079234E0C040
:1012E000A1C3E73F56B90E07EB35B1C038C3EC3F99
:1012F00009BA46063F3788C0CFC2F13FBFBA7E0564
:101300008E3864C066C2F53F77BBB504D93945C095
:10131000FEC1F83F32BCED031E3B2CC097C1FB3F22
:10132000F0BC24035F3C19C030C1FD3FB0BD5B027F
:101330009A3D0BC0CAC0FF3F73BE9201D03E03C0AE
:1013400065C0004038BFC90010B5431A934209D2A6
:101350008318881803E010F8011D03F8011D521EC0
:10136000F9D210BD40EA01039B0703D009E008C988
:10137000121F08C0042AFAD203E011F8013B00F85A
:10138000013B521EF9D210BDD2B201E000F8012B90
:10139000491EFBD270470022F6E710B513460A46F5
:1013A00004461946FFF7F0FF204610BD421C10F816
:1013B000011B0029FBD1801A704710B5002200E004
:1013C000521C835C8C5CA34201D1002BF8D1D8B2B3
:1013D000E1B2401A10BD034611F8012B00F8012BB1
:1013E000002AF9D118467047F0B480EA0102D40F00
:1013F0004200B2EB410F02D20246084611464A00B3
:1014000042D0C30DDDB2C1F3C752AD1A202D35DA7B
:10141000C1F3160141F4000204B15242C5F12006A5
:1014200002FA06F12A411044B3EBD05F23D0C4B1D5
:10143000012DA0EBC35009DCF0BC4FF0004202EAE2
:10144000C352DBB200F5000000F0F3BA400000F137
:10145000807000EBC350A0F1807040EAD170490069
:1014600009E0490841EAC071A0EBC35000F5000053
:10147000400800EBC350F0BC00F0D2BA6142012238
:1014800002EB4101001BF6E7F0BC704781F0004120
:10149000AAE780F00040A7E780EA010210B502F059
:1014A0000043400022D04A001FD0010E01EB126120
:1014B000C0F35600C2F3560240F4000042F40002AA
:1014C000A0FB022000047F39140400D0401C50EA25
:1014D000124001D44000491EC2B20C0604EBD010E9
:1014E000401C4008802A02D003E0002010BD20F0FC
:1014F0000100002900DA0020184310BD30B480EA52
:10150000010202F0004530F0004221F0004013D00B
:1015100090B1C30DD40DC2F31601C0F31600E41A46
:1015200041F4000140F400027D34914201D3641C77
:1015300000E04900002C02DA30BC002070474FF474
:1015400000000023914201D3891A034340084FEA67
:101550004101F7D151B1914202D14FF0004105E074
:1015600002D24FF0010101E06FF0010103EBC45022
:10157000284430BC00F054BA2DE9FE4F804681EA81
:101580000300C00F0C46009021F0004123F00045FD
:10159000B8EB0200A94105D24046214690461C46C0
:1015A0000B46024623F00040104347D0270DC7F3F7
:1015B0000A00C3F30A510290401A019040286BDAE6
:1015C000C3F3130040F4801B0098924620B100231F
:1015D000D2EB030A63EB0B0B01985946C0F14002B2
:1015E000504600F0ECF906460D4650465946019A21
:1015F00000F004FA10EB08006141002487EA115260
:1016000084EAE7731A4340D0009A62B3019A012A30
:101610004FEA075215DC001B61EB02014FF000425C
:1016200002EA0752CDE90042001C41F58011324622
:101630002B4600F03BFA03B0BDE8F08F4046214650
:10164000F9E7001B61EB0201001C41F58013001853
:101650005B412018A2F5001747EB030140EAD57063
:10166000B6196D4111E06D084FEA360645EAC075BE
:101670004FEA0752001B61EB0201001C41F580118B
:1016800049084FEA30000019514132462B4603B059
:10169000BDE8F04F00F0FBB90098012240000023A4
:1016A000D0EB020263EBE073009821464FEAE0744E
:1016B000B8EB000061EB0401E9E783F000435BE76E
:1016C00081F0004158E72DE9F04D81EA030404F070
:1016D000004B21F0004514464FF0000A23F0004172
:1016E00050EA050220D054EA01021DD0C5F30A5782
:1016F0000246C5F31303C1F31300C1F30A5640F4C5
:10170000801543F48013A7EB0608101BD64608F299
:10171000FD3873EB050002D308F1010801E09218CF
:101720005B41B8F1000F03DA00200146BDE8F08DFF
:1017300000204FF48011064684460EE0171B73EB21
:10174000050705D3121B63EB050306434CEA010CA6
:1017500049084FEA300092185B4150EA0107EDD189
:1017600052EA030012D082EA040083EA050108432A
:1017700005D0101BAB4106D20122002306E0002257
:101780004FF0004302E06FF0010253101AEB060025
:101790004CEB085110EB0A0041EB0B01BDE8F04D9A
:1017A00000F075B9C10F80EAE0700844CA079623BB
:1017B000002100F03EB996230022114600F039B90D
:1017C0000EB5C10F80EAE0700844CA07002140F25C
:1017D00033438DE80E000A460B4600F067F903B06C
:1017E00000BD00F0004220F00040C10DC0F3160023
:1017F00040F400007F2901DA00207047962903DCBD
:10180000C1F19601C84001E096398840002AF4D021
:101810004042704720F00040C10DC0F3160040F474
:1018200000007F2901DA00207047962903DCC1F10E
:101830009601C840704796398840704770B5C1F32B
:101840000A5201F000450024C1F3130140F2FF33B6
:1018500041F480119A4201DA002070BD40F2334316
:101860009A42A2F2334203DC524200F0B7F800E0A1
:1018700090402C43F1D0404270BD00F0004230F067
:1018800000400AD0C10D01F56071C0F3160042EAB4
:101890000151C208400711437047002001467047BC
:1018A00030B5041E71F1000404DB4FF000444042E7
:1018B00064EB0101141E73F1000405DB1C464FF0BC
:1018C0000043524263EB0403994208BF904230BD8B
:1018D00001F0004330B421F0004150EA010206D08B
:1018E0000A0DA2F56072C1F31301002A02DC30BCBC
:1018F00000207047440F44EAC104C100E01830BC26
:1019000000EBC25000F08CB8002801DBC0F10040B1
:10191000002901DBC1F1004181427047002801DB51
:10192000C0F10040002901DBC1F10041884270474D
:1019300030B50B46014600202022012409E021FA9F
:1019400002F59D4205D303FA02F5491B04FA02F59C
:101950002844151EA2F10102F1DC30BD2DE9F05F33
:101960000546002092469B4688460646814640240E
:101970001BE0284641464746224600F02FF85346D2
:101980005A46C01A914110D311461846224600F01B
:1019900016F82D1A67EB01084F4622460120002158
:1019A00000F00DF817EB00094E41201EA4F10104D0
:1019B000DFDC484631462A464346BDE8F09F202AF0
:1019C00004DB203A00FA02F1002070479140C2F196
:1019D000200320FA03F3194390407047202A04DBC8
:1019E000203A21FA02F00021704721FA02F3D04098
:1019F000C2F120029140084319467047202A06DBB5
:101A0000CB17203A41FA02F043EAE07306E041FACC
:101A100002F3D040C2F120029140084319467047BA
:101A20000029A8BF7047401C490008BF20F00100F2
:101A3000704710B4B0FA80FC00FA0CF050EA0104D0
:101A400004BF10BC704749B1CCF1200421FA04F462
:101A500011FA0CF118BF012121430843A3EB0C013B
:101A6000CB1D4FEA00614FEA102042BF002010BC9E
:101A7000704700EBC35010440029A4BF10BC70474E
:101A8000401C490008BF20F0010010BC704710B591
:101A9000141E73F1000408DA401C41F10001921891
:101AA0005B411A4301D120F0010010BD2DE9F04D3A
:101AB00092469B4611B1B1FA81F202E0B0FA80F28F
:101AC00020329046FFF77BFF04460F4640EA0A00AB
:101AD00041EA0B0153465A46084313D0114653EAD4
:101AE000010019D0C8F140025046FFF777FF0546C4
:101AF0000E46504659464246FFF761FF084305D05F
:101B0000012004E020463946BDE8F08D0020054361
:101B100046EAE0762C4337430A986305E40AA0EBD3
:101B200008000022FD0A44EA47540A3002D500208A
:101B30000146E9E7010510196941DDE90845001989
:101B40006941BDE8F04DA2E72DE9FE4F81EA0304AB
:101B500004F0004421F0004100944FF0000B23F00A
:101B6000004350EA01045ED052EA03045BD0C3F3A1
:101B70000A54C1F30A552C44A4F2F3340194A0FB97
:101B80000254C1F3130141F48011C3F3130343F46E
:101B9000801301FB024400FB034E840A970A44EAC7
:101BA000815447EA8357A4FB076802958D0A05FB19
:101BB00007854FEA932C04FB0C542705029D4FEA3E
:101BC000065847EA1637B5EB08056EEB070C870E8B
:101BD000920E47EA811742EA8312A7FB0201B6EB95
:101BE0000B0164EB00042B0D43EA0C335E1844EB4D
:101BF0001C50DA465146E7FB0201C5F313044FEAD5
:101C00000B3343EA14534FEA0432019C43EA0603C0
:101C1000A4F10C040294009CCDE900B4FFF746FF48
:101C200003B0BDE8F08F00200146F9E72DE9F04D43
:101C300000231A461B1A8A4103DB00200146BDE837
:101C4000F08DC1F30A52C1F3130141F480154FF036
:101C5000000BD10702D100186D41521E0027044627
:101C600040F2FF11384601EB620A3E4680460246CA
:101C700000204FF48011FFF7B1FEC2197141BB186B
:101C800046EB0100B4EB030C75EB000C04D3E41A33
:101C900065EB000517460E46241908F101006D4159
:101CA00080463428E3DDF91946EB0600091BA841FC
:101CB00003D24FF0FF32134601E0002213461BEB24
:101CC000070046EB0A51BDE8F04DFFF7E0BEC1F357
:101CD0000A52C1F3130140F2FF3341F480119A42DA
:101CE00002DA00200146704740F233439A42A2F2E2
:101CF000334202DC5242FFF771BEFFF760BE0000C4
:101D0000064C074D06E0E06840F0010394E8070048
:101D100098471034AC42F6D3FEF70EFA7C8A0408DA
:101D20009C8A040870B58C1810F8015B15F0070345
:101D300001D110F8013B2A1106D110F8012B03E064
:101D400010F8016B01F8016B5B1EF9D12B0705D46C
:101D50000023521E0DD401F8013BFAE710F8013BB5
:101D6000CB1A921C03E013F8015B01F8015B521ED1
:101D7000F9D5A142D8D3002070BD000000B587B0CE
:101D800001214FF401700BF061FD4FF400400BF0A6
:101D900021FD00208DF81B0003208DF81A00022081
:101DA000ADF8180006A91F4803F044FA1E4800F0D9
:101DB00029F9002001908DF8080001208DF8090014
:101DC0004FF4602003900020049001208DF814004F
:101DD00001A9154800F066F901231A461946124870
:101DE00000F088F90121104800F001F901210E48A6
:101DF00000F0F2F80C4800F0D9F900BF0A4800F0F2
:101E000046F90028FAD1084800F0E0F900BF06487A
:101E100000F026F90028FAD10121034800F0CBF99F
:101E200007B000BD000801400024014010B50723A1
:101E300001220A21084800F05DF90121064800F05E
:101E4000BAF900BF0221044800F018F90028F9D0BF
:101E5000014800F00FF910BD0028014000B587B01F
:101E600001214FF482600BF0F1FC4FF400400BF0C5
:101E7000B1FC03208DF806000120ADF8040000201D
:101E80008DF8070001A9184803F0D4F9174800F0AD
:101E9000B9F8002002908DF80C0001208DF80D009B
:101EA0004FF4602004900020059001208DF8180068
:101EB00002A90E4800F0F6F801210C4800F08CF859
:101EC0000A4800F073F900BF084800F0E0F8002865
:101ED000FAD1064800F07AF900BF044800F0C0F8D3
:101EE0000028FAD107B000BD0010014000280140D1
:101EF00010B5072301220221084800F0FBF8012158
:101F0000064800F058F900BF0221044800F0B6F876
:101F10000028F9D0014800F0ADF810BD00280140BC
:101F200000B587B0012140F204400BF08FFC4FF464
:101F300000400BF04FFC03208DF806000420ADF8A4
:101F4000040000208DF8070001A9214803F072F970
:101F5000204800F057F8002002908DF80C00012076
:101F60008DF80D004FF460200490002005900120B2
:101F70008DF8180002A9174800F094F801211548BF
:101F800000F02AF8134800F011F900BF114800F0E2
:101F90007EF80028FAD10F4800F018F900BF0D486C
:101FA00000F05EF80028FAD1072301220221094837
:101FB00000F0A0F80121074800F0FDF800BF022161
:101FC000044800F05BF80028F9D007B000BD00001D
:101FD000000801400028014021B1826842F001025E
:101FE000826003E0826822F001028260704721B1C2
:101FF000826842F48072826003E0826822F4807218
:102000008260704710B504461248844208D101210D
:1020100040150BF02BFC002160150BF027FC17E09E
:102020000D48844208D1012100150BF01FFC00214E
:1020300020150BF01BFC0BE00848844208D101215D
:10204000C8030BF013FC00214FF400400BF00EFC12
:1020500010BD00000024014000280140003C014068
:10206000014600208A6802F004020AB1012000E063
:10207000002070470146C86C80B2704702460020BD
:1020800013680B400BB1012000E0002070470146AF
:1020900000208A6802F008020AB1012000E0002056
:1020A0007047000030B502460020002350680F4CF6
:1020B00020400D790C6844EA052420435060906864
:1020C0000B4C2040D1E902542C434D7944EA45049D
:1020D00020439060D06A20F470000C7C641EE4B24F
:1020E000234340EA0350D06230BD0000FFFEF0FF02
:1020F000FDF7F1FFF0B504460D4600200021092D43
:1021000011DDE068A5F10A0606EB4607072606FA88
:1021100007F18843A5F10A0606EB460603FA06F125
:102120000843E0600CE0206905EB4507072606FA46
:1021300007F1884305EB450603FA06F108432061E1
:10214000072A0FDA606B561E06EB86071F2606FA73
:1021500007F18843561E06EB860605FA06F108438A
:10216000606322E00D2A0FDA206BD61F06EB86078C
:102170001F2606FA07F18843D61F06EB860605FAE6
:1021800006F10843206310E0E06AA2F10D0606EBB9
:1021900086071F2606FA07F18843A2F10D0606EB13
:1021A000860605FA06F10843E062F0BD816841F059
:1021B00008018160704721B1826842F4A002826008
:1021C00003E0826822F4A00282607047816841F0D7
:1021D000040181607047002800DC40427047000025
:1021E00070B5044610480088844200DB002480203B
:1021F00000EB440084B20D490D480068FFF74CF92C
:102200000546FFF707FB0B4921F8140007490A4868
:102210000068FFF741F90546FFF7FCFA81B2601C40
:10222000044A22F8101070BD14F001080000C842E2
:1022300040020020224A002048020020064A12885C
:10224000904200DB002000EB8002D0B2021D034B65
:1022500023F812107047000012F00108224A0020F3
:10226000084A1288904200DB0020B1F5E07F00DBD5
:10227000002100EB8002D0B2C21C034B23F81210E5
:102280007047000012F00108224A00201349098813
:10229000884200DB002000EB8001C8B210498A7937
:1022A0008988A1F5FA61C9B242EA01210D4A22F8F2
:1022B00010100B4909780A4AD27941EA0222411CDE
:1022C000084B23F8112006498978054A527841EADB
:1022D0000222811C23F811207047000012F001082F
:1022E000184A0020224A002010B501200BF0CEFA37
:1022F00000200BF0CBFA10BD08B50146002000907D
:10230000034800900098084400900098008808BD99
:10231000006C004008B500220092044A0092009A26
:1023200002440092009A116008BD0000006C004059
:1023300010B5012140200BF059FA08F0EFFA4FF4E4
:1023400040700AF08FFC1BF0E9FF4FF4E1301CF005
:102350004BF8FFF713FDFFF7E3FDFFF77FFD1BF0E1
:10236000B8FE0BF0ADFF1BF06DFF00BF0BF0B2FC31
:102370000028FBD11BF0FCFE0CF070FB1BF0BAFE3A
:102380000CF038FF024908780AF098FA002010BDD6
:102390003000002010B5002101480DF088F910BD73
:1023A000000C004010B540F22B1102480DF07FF9EF
:1023B00010BD0000000C004000BFFEE770B50246F3
:1023C0000C46FF25FF2309E012F8010B80EA050106
:1023D0000648405C80EA03050548435C201EA4F1E2
:1023E0000106F4B2F0D143EA052070BD31000020AF
:1023F0003101002009490988884200DB0020802142
:1024000001EB400188B20021054A22F81010002299
:10241000411C034B23F811207047000014F0010801
:10242000224A0020F0B50446002500270026E0B22D
:1024300007F012FD0746E0B207F0EAFC0646354613
:1024400004E02846FFF7D6FF681C85B2B819A842F9
:10245000F7DCE0B200F002F8F0BD00000D49098899
:10246000884200DB002000EB8001C8B200210A4A4C
:1024700022F810100022411C074B23F81120811C68
:1024800023F81120C11C23F81120011D23F811206D
:102490007047000012F00108224A0020F0B587B012
:1024A0000DF040FF064604202F4906222F4FCDE9AC
:1024B0000062CDE902107B693A69F968B8680DF0ED
:1024C0006FFD3946086404200EF086FA28A04FF408
:1024D000B0710E220223CDE90132CDE90310384656
:1024E000006C182364224621009073200CF02FFC0E
:1024F0000446224920460CF09EFC4FF47F01204602
:102500000CF0D0FC142002214FF4A8720023CDE976
:102510000232CDE904103846006C3C231A46CDE95E
:1025200000015F218C200AF0DFFF05461449284690
:102530000EF024FA134928460BF0C0F8002212A12D
:1025400028460BF0D1F8012210A128460BF0CCF858
:102550000F48018828460BF0EBF828460EF06CFA7D
:1025600004F076FD07B0F0BD7DB8010824520020CC
:1025700053686F77204C6F676F00000058E30308C3
:1025800005C2010888D303084F4646004F4E00009D
:102590007C020020F0B585B00DF0C4FE0646042094
:1025A0002F4906222F4FCDE90062CDE902107B6949
:1025B0003A69F968B8680DF0F3FC394648640420BC
:1025C0000EF00AFA28A04FF4B0710C220223CDE9D4
:1025D0000132CDE903103846406C182338226421BB
:1025E000009087200CF0B3FB0446204920460CF0F5
:1025F00022FC4FF47F0120460CF054FC0A204FF4DB
:10260000807100220223CDE90132CDE90310384662
:10261000406C18232A2264210090A52001F0EDFED1
:10262000054600220A21284601F03EFF00200090C6
:10263000F623012201900E480188284601F0C8FFC8
:102640000A49284602F064F80321284601F05BFF9E
:1026500028460EF0F1F904F0FBFC05B0F0BD0000D7
:10266000B1B9010824520020413A0000381A040888
:10267000300000202DE9F04186B00DF053FE0746F2
:1026800004208F490622DFF83CC2CDE90072CDE973
:102690000210DCF81430DCF81020DCF80C10DCF848
:1026A00008000DF07DFC8749886304200EF094F942
:1026B00085A04FF4B0710C220223CDE90132CDE99F
:1026C00003108048806B18233822282100907D2039
:1026D0000CF03DFB04467D4920460CF0ACFB4FF46A
:1026E0007F0120460CF0DEFB0A204FF480710022AF
:1026F0000223CDE90132CDE903107248806B182323
:102700003622282100909B2001F077FE054600220A
:102710000A21284601F0C8FE002000904FF47A7389
:10272000024601906A480188284601F051FF674936
:10273000284601F0EDFF0321284601F0E4FE28467B
:102740000EF07AF963A040F261110C220223CDE968
:102750000132CDE903105B48806B182338225A21DF
:1027600000907D200CF0F3FA0446584920460CF006
:1027700062FB4FF47F0120460CF094FB0A2040F2EC
:10278000011100220223CDE90132CDE903104D48A9
:10279000806B18233C225A2100909B2001F02DFED3
:1027A000054600220A21284601F07EFE4A4800889C
:1027B000FFF701F880464949FEF76EFE0746002004
:1027C0000221474B0246CDE900103946284601F068
:1027D00053FF3E49284601F09BFF0421284601F0A3
:1027E00092FE40A04FF4B1710C220223CDE90132D8
:1027F000CDE903103348806B182350225A210090F2
:10280000DC200CF0A4FA0446384920460CF013FBF7
:1028100037A040F263110C220223CDE90132CDE949
:1028200003102848806B142341228C2100907D20C6
:102830000CF08DFA0446254920460CF0FCFA4FF4C2
:102840007F0120460CF02EFB102004214FF4A872CB
:102850000023CDE90232CDE9041002211948806B32
:102860004F234B22CDE900018C219B200AF03CFE36
:102870000646204930460EF081F81F4930460AF0DE
:102880001DFF00221DA130460AF02EFF01221DA1CE
:1028900030460AF029FF02221CA130460AF024FF2C
:1028A00003221BA130460AF01FFF1B480088411E6F
:1028B00030460AF03DFF04F0CBFB06B0BDE8F081E6
:1028C00075BA0108245200204B3A0000381A040857
:1028D00058020020483A0000560200200AD7233C44
:1028E000E1FAC742572F636DC2B2000000C9030866
:1028F000473A000005C2010888D3030848696768A1
:10290000000000004D656469756D00004C6F770034
:102910004175746F0000000008000020F0B587B01A
:102920000DF000FD07460420C0490622DFF800C371
:10293000CDE90072CDE90210DCF81430DCF810208B
:10294000DCF80C10DCF808000DF02AFBB849C8636D
:1029500004200EF041F8B7A04FF4B0710E2202230C
:10296000CDE90132CDE90310B148C06B18231A221A
:10297000282100907D200CF0EAF90546AE49284652
:102980000CF059FA002128460CF08CFA1420022190
:102990004FF4A8720023CDE90232CDE90410A44817
:1029A000C06B3C231A46CDE90001232196200AF092
:1029B0009BFD0646A14930460DF0E0FFA049304698
:1029C0000AF07CFE00229FA130460AF08DFE012213
:1029D0009DA130460AF088FE9C48018830460AF0E6
:1029E000A7FE30460EF028F899A040F261110E22A1
:1029F0000223CDE90132CDE903108D48C06B1823C5
:102A00001A225A2100907D200CF0A1F905468A492E
:102A100028460CF010FA002128460CF043FA142046
:102A2000022140F251120023CDE90232CDE9041017
:102A30007F48C06B3C231A46CDE900015521962002
:102A40000AF052FD06467D4930460DF097FF7C495D
:102A500030460AF033FE00227AA130460AF044FEE6
:102A6000012279A130460AF03FFE7A480088012809
:102A700004DB012130460AF05BFE03E00021304612
:102A80000AF056FE0A204FF4807100220223CDE99D
:102A90000132CDE903106648C06B1423242267215C
:102AA0000090C82001F0A9FC0446002000904FF4DB
:102AB00016730122019067480188204601F088FDC5
:102AC0006549204601F024FE0221204601F01BFD4D
:102AD00062A04FF4B1710E220223CDE90132CDE99B
:102AE00003105348C06B11230A2269210090F02083
:102AF0000CF02DF905465A4928460CF09CF90021A6
:102B000028460CF0CFF957A040F263110E220223A1
:102B1000CDE90132CDE903104548C06B18233022BE
:102B20008C21009068200CF012F905464249284695
:102B30000CF081F9002128460CF0B4F91420022190
:102B40004FF4A9720023CDE90232CDE904103848D0
:102B5000C06B3C231A46CDE90001872196200AF07C
:102B6000C3FC0646354930460DF008FF344930466F
:102B70000AF0A4FD002233A130460AF0B5FD01227F
:102B800031A130460AF0B0FD38480088012804DB46
:102B9000012130460AF0CCFD03E0002130460AF066
:102BA000C7FD0A2040F2011100220223CDE90132C3
:102BB000CDE903101E48C06B1423242299210090F4
:102BC000C82001F01AFC0446002000906423012272
:102BD000019026480188204601F0FAFC1E49204653
:102BE00001F096FD0221204601F08DFC20A04FF45B
:102BF000B2710E220223CDE90132CDE903100C4857
:102C0000C06B11231E229B210090F0200CF09FF836
:102C10000546134928460CF00EF9002128460CF011
:102C200041F904F015FA07B0F0BD000035BC010809
:102C300024520020463A0000381A040805C2010850
:102C400088D303084E4F000059455300540200201A
:102C5000543A00007E020020A0F303087300000035
:102C600058E303084F46463A000000000A000020DF
:102C70006D696E0070B588B00020059006900790D1
:102C80000DF050FB0546042061490622614ECDE956
:102C90000052CDE9021073693269F168B0680DF035
:102CA0007FF93146086200234EF66022086A194611
:102CB0000DF04CF958A04FF4B0710C220223CDE96D
:102CC0000132CDE903103046006A5023D7223C215F
:102CD00000901E200CF03BF80446FF2120460CF02B
:102CE000E1F84E480068FEF7C8FD05462A460B4647
:102CF0004BA105A818F056FD48480068FEF7BDFD39
:102D000005460022484BFEF7CBFD04D84749204634
:102D10000CF091F803E0464920460CF08CF805A928
:102D200020460CF09AF843A040F261110C220223D5
:102D3000CDE90132CDE903103648006A1823482254
:102D400062210090F6200CF002F804463B49204630
:102D50000CF071F8FF2120460CF0A4F838A04FF4D5
:102D6000B1710C220223CDE90132CDE903102948CB
:102D7000006A20239022BA21009019200BF0E7FF6F
:102D80000446304920460CF056F84FF400412046E6
:102D90000CF088F82C480068FEF76FFD05462A46BF
:102DA0000B462AA105A818F0FDFC05A920460CF049
:102DB00054F823A040F263110C220223CDE9013222
:102DC000CDE903101348006A2023A022BA21009005
:102DD000B2200BF0BCFF04461A4920460CF02BF839
:102DE0004FF47F0120460CF05DF81B480068FEF7A9
:102DF00044FD05462A460B4618A105A818F0D2FC4A
:102E000005A920460CF029F804F022F908B070BD9D
:102E100029BF0108245200202000000040020020A9
:102E200025342E326600000000002440A84E04081D
:102E300070720408572F636DC2B20000380704088F
:102E400000000000E0380408440200204D61783A98
:102E500025342E32660000004802002046723A25D2
:102E6000352E32660000000010B500243948008875
:102E7000012816D16FF07F400DF0C0FD04F0E8F896
:102E800024224221344803F0EDFE01201BF076FAA3
:102E90000121324802F0B4FA4FF4C8601BF06EFA18
:102EA00056E000200DF0AAFD04F0D2F8052005F050
:102EB00051F92B4805F012F901201BF05FFA0121AE
:102EC000264802F09DFA002408E07821204604F00C
:102ED0002FF803201BF052FA601C84B2642CF4DB40
:102EE000642409E0C4F1DC01204604F021F8032049
:102EF0001BF044FA601C84B2822CF3DB822409E0CC
:102F0000A4F12801204604F013F803201BF036FA40
:102F1000601C84B2B42CF3DBB42409E0C4F5A071C6
:102F2000204604F005F803201BF028FA601C84B248
:102F3000C82CF3DBC82408E07821204603F0F8FF12
:102F400003201BF01BFA601C84B2B4F5A07FF3DBF6
:102F500010BD00007C020020D8E6020800080140F5
:102F600069D870002DE9F04F95B000240026282183
:102F700008A8FEF710FA0027A046002500200590BB
:102F8000069007900DF0CEF982460420B64906223D
:102F9000DFF8D8C2CDE900A2CDE90210DCF8143088
:102FA000DCF81020DCF80C10DCF808000CF0F8FF5E
:102FB000AE49C862AEA04FF4B0710E220223CDE933
:102FC0000132CDE90310A948C06A14234FF49B7263
:102FD000C821009005200BF0BAFE81464FF47F0116
:102FE00048460BF05FFFA74948460BF024FFA6A018
:102FF00040F261110E220223CDE90132CDE9031026
:103000009A48C06A0A239222BE210090A5200BF0A4
:103010009EFE8146A14948460BF00DFF002148461F
:103020000BF040FF002006F005FF05462879A9882F
:103030000912AA786B881B12CDE90032CDE9021083
:103040002B7828884FF4FA6101EB202294A105A87F
:1030500018F0A8FB05A948460BF0FFFE4FF40071DD
:10306000002202238148C06ACDE901320391009019
:10307000C323962205210A2008F0DDFD83468D49F1
:1030800058460DF07BFC8C4958460CF09FFD584685
:1030900008F0CDFE8246012107F0E5F801215846EF
:1030A00009F061F800BF18E0844800EB0410836861
:1030B000824800EB04100268804800EB041041686D
:1030C000584608F0E4FB7D4800EB04102146C26836
:1030D000584609F02DF8601CC4B2022CE4DB002431
:1030E0000DE0204606F0B8FE18B9204609F0F6FCBF
:1030F00003E008F101001FFA80F8601CC4B2192C2B
:10310000EFDB002434E0204606F094FE05462A79E1
:10311000A8880012A9786B881B12CDE90031CDE98F
:1031200002022B7828884FF4FA6101EB20225CA17F
:1031300008A818F037FB204606F08EFE07463A46F0
:103140005FA10DA818F02EFB002609E006EB860013
:1031500008A901EB800012A941F82600701CC6B234
:10316000022EF3DB12A9584608F0DDFB601CC4B246
:103170004445C8DB584608F049FE082158460BF084
:10318000ADFA0021584609F008F858460DF054FCF5
:1031900040F20121002202233448C06ACDE9013205
:1031A00003910090B72392220521A52008F043FD4A
:1031B0008346444958460DF0E1FB3F4958460CF020
:1031C00005FD0121584608F0CEFF002418E03E48D6
:1031D00000EB041083683C4800EB041002683A4896
:1031E00000EB04104168584608F051FB364800EBEC
:1031F00004102146C268584608F09AFF601CC4B209
:10320000022CE4DB002006F027FE0746002419E02C
:10321000204606F0EBFD05466988288809F02CFD5C
:10322000002607E0294800EBC60012A941F8260055
:10323000701CC6B2022EF5DB12A9584608F073FBCB
:10324000601CC4B2BC42E3DB584608F0DFFD082135
:1032500058460BF043FA0021584608F09EFF03F051
:10326000F7FE15B0BDE8F08F49C2010824520020D6
:10327000486973746F726963616C207265636F7201
:103280006473000058E30308323031362F31312F98
:1032900032332031303A33383A34350088D303089A
:1032A00025642F25642F25642025643A25643A255A
:1032B0006400000085BE0108A4720408C8EF01087C
:1032C00025640000D7BE0108E8EF01082053002064
:1032D000F0B585B00DF026F806460420DD4906223B
:1032E000DD4FCDE90062CDE902107B693A69F968EA
:1032F000B8680CF055FE3946486304200DF06CFBAD
:10330000D6A04FF4B3710E220223CDE90132CDE9EC
:1033100003103846406B1823B42214210090462035
:103320000BF015FD0446D24920460BF084FDFF2129
:1033300020460BF0B7FDCFA04FF4B0710C22022352
:10334000CDE90132CDE903103846406B182338220D
:103350003221009041200BF0FAFC0446C749204678
:103360000BF069FD05204FF4807100220223CDE9A6
:103370000132CDE903103846406B1E233822462126
:103380000090412001F039F8054600220A21284624
:1033900001F08AF8002000900190B948818840F639
:1033A00033034FF4FA62284601F012F9B049284677
:1033B00001F0AEF90321284601F0A5F828460DF0EA
:1033C0003BFBB0A040F261110C220223CDE9013297
:1033D000CDE903103846406B18233C22322100907F
:1033E0008A200BF0B4FC0446A44920460BF023FDD0
:1033F000052040F2011100220223CDE90132CDE97E
:1034000003103846406B1E23202246210090912055
:1034100000F0F3FF054600220A21284601F044F897
:10342000002000900190964881790C2301222846C3
:1034300001F0CEF88E49284601F06AF901212846AC
:1034400001F061F891A04FF4B1710E220223CDE991
:103450000132CDE903103846406B18232022322177
:103460000090E1200BF073FC0446844920460BF0E9
:10347000E2FC05204FF4817100220223CDE90132E4
:10348000CDE903103846406B1E23202246210090D0
:10349000E12000F0B2FF054600220A21284601F093
:1034A00003F80020009001907548C1791F23012284
:1034B000284601F08DF86E49284601F029F90121CE
:1034C000284601F020F872A040F263110E22022378
:1034D000CDE90132CDE903103846406B182328228C
:1034E0006E2100903F200BF032FC044663492046D9
:1034F0000BF0A1FC052040F2031100220223CDE9CC
:103500000132CDE903103846406B1E232022822170
:103510000090412000F071FF054600220A21284654
:1035200000F0C2FF00200090019055480178172359
:103530000022284601F04CF84D49284601F0E8F8F1
:103540000121284600F0DFFF53A04FF4B2710C2296
:103550000223CDE90132CDE903103846406B182330
:103560003C226E21009089200BF0F1FB0446434978
:1035700020460BF060FC05204FF4827100220223EC
:10358000CDE90132CDE903103846406B1E232022DD
:1035900082210090912000F030FF054600220A2190
:1035A000284600F081FF00200090019034484178C7
:1035B0003B230022284601F00BF82D49284601F054
:1035C000A7F80121284600F09EFF35A040F26511C2
:1035D0000C220223CDE90132CDE903103846406BBD
:1035E00018233C226E210090D4200BF0B0FB04463F
:1035F000224920460BF01FFC052040F20511002255
:103600000223CDE90132CDE903103846406B1E2379
:10361000202282210090E12000F0EFFE05460022EA
:103620000A21284600F040FF002000900190144835
:1036300081783B230022284600F0CAFF0C49284627
:1036400001F066F80121284600F05DFF03F000FD5F
:1036500005B0F0BD09C7010824520020536574204D
:1036600043757272656E742054696D6500000000C8
:10367000381A0408596561720000000058E3030815
:10368000184A00204D6F6E74680000004461790094
:10369000486F7572000000004D696E75746500001A
:1036A0005365636F6E640000F0B587B00CF03AFEAE
:1036B0000646042036490622364FCDE90062CDE9A0
:1036C00002107B693A69F968B8680CF069FC394600
:1036D000086304200DF080F92FA04FF4B0710E2282
:1036E0000223CDE90132CDE903103846006B1823DF
:1036F0004FF48C721E21009014200BF028FB04461E
:10370000294920460BF097FBFF2120460BF0CAFB0E
:103710005A203C214FF414720023CDE90232CDE946
:10372000041002213846006B6E234FF48272CDE9FB
:10373000000150211C2006F0C1FE05460022114662
:10374000284606F049FF194A0021284606F01BFFCB
:103750001749284606F02EFF16A21849284606F0FB
:10376000E5FD17A21849284606F0E0FD17A2194901
:10377000284606F0DBFD18A21849284606F0D6FDBB
:1037800028460DF059F903F063FC07B0F0BD0000C6
:10379000A1C701082452002053657474696E6773D1
:1037A0002050616765000000381A0408D3D3D300A5
:1037B00058E30308436F6E6631000000EC01030814
:1037C000436F6E6632000000001D0308436C6F6398
:1037D0006B000000143803085553420054B6030828
:1037E00070B588B000200590069007900CF09AFD07
:1037F0000646042052490622CDE90062CDE90210B6
:103800005048C3680021026808460CF0C9FB4D49C6
:10381000C8614DA04FF4B0710C220223CDE90132F2
:10382000CDE903104748C0691423582200210090B5
:1038300005200BF08CFA0446464920460BF0FBFAB3
:103840006FF07F4120460BF02DFB43A040F2611149
:103850000C220223CDE90132CDE903103948C069B9
:10386000142330220021009060200BF070FA0446EF
:103870006FF0704120460BF0C3FA364920460BF03A
:10388000DAFAFF2120460BF00DFB344809F07EFBED
:103890004FF40471002202232A48C069CDE90132A5
:1038A0000391009027490968A1F12C000E232222E0
:1038B000032109F0B0FA05466421284609F098FB77
:1038C00025A04FF4B1710C220223CDE90132CDE9DC
:1038D00003101C48C0691B4900900968A1F1AA00A7
:1038E00014237E2200210BF032FA04466FF070415F
:1038F00020460BF085FA6FF07F4120460BF0D2FA9C
:10390000144920460BF097FA1548807814494978F5
:10391000134A1278124BDB79CDE90032CDE902105F
:103920000F48837982880FA105A817F03BFF05A9EE
:1039300020460BF092FA03F08BFB08B070BD00003C
:1039400065C8010824520020536F756E6420506FC3
:103950007765720088D3030800000000E1CE0008FC
:10396000184A002025302E34642F25302E32642F43
:1039700025302E32642025302E32643A25302E3206
:10398000643A25302E3264002DE9F04391B00025D1
:103990000026002400200E900F901090202106A8F1
:1039A000FDF7F9FC0CF0BEFC81460420A949062273
:1039B000DFF8A4C2CDE90092CDE90210DCF81430A2
:1039C000DCF81020DCF80C10DCF808000CF0E8FA49
:1039D000A1498862A1A04FF4B0710E220223CDE963
:1039E0000132CDE903109C48806A10234FF49B728A
:1039F000CA21009005200BF0AAF9074698493846DD
:103A00000BF019FA4FF40071002202239248806AE9
:103A1000CDE9013203910090C5234FF49B7205213B
:103A2000084608F008F980468E4940460CF0CEF86A
:103A30000021404608F076FB0021404608F075FB67
:103A40000121404608F08FFB00BF18E0864800EBDC
:103A500005108368844800EB05100268824800EB7B
:103A600005104168404607F012FF7F4800EB051043
:103A70002946C268404608F05BFB681CC5B2032DAE
:103A8000E4DB404608F0C2F90026D5E0C6F1260086
:103A9000764911F810000090C6F1260031F81000A8
:103AA0000312C6F1330011F8102071A106A817F017
:103AB00079FEC6F10C006D4931F810404FF47A7070
:103AC00094FBF0F040B14FF47A7094FBF0F030309A
:103AD000C0B28DF8220002E020208DF822004FF4C1
:103AE0007A7094FBF0F100FB1140642190FBF1F03F
:103AF0003030C1B206A8C1722E210173642094FB3C
:103B0000F0F100FB11400A2190FBF1F03030C1B21E
:103B100006A84173642094FBF0F100FB11400A21D8
:103B200090FBF1F201FB12003030C1B206A88173A4
:103B3000C6F119004D4931F8104042F2107094FB63
:103B4000F0F040B142F2107094FBF0F03030C0B2AF
:103B50008DF82C0002E020208DF82C00642094FBCE
:103B6000F0F064281DDA42F2107094FBF0F100FBD3
:103B700011404FF47A7190FBF1F070B142F2107085
:103B800094FBF0F100FB11404FF47A7190FBF1F0DF
:103B90003030C1B206A8417511E0202106A8417558
:103BA0000DE042F2107094FBF0F100FB11404FF475
:103BB0007A7190FBF1F03030C1B206A841754FF434
:103BC0007A7094FBF0F100FB1140642190FBF1F05E
:103BD0003030C1B206A881752E21C175642094FBD6
:103BE000F0F100FB11400A2190FBF1F03030C1B23E
:103BF00006A80176642094FBF0F100FB11400A2135
:103C000090FBF1F201FB12003030C1B206A8417600
:103C1000002509E005EB850006A901EB40000EA98F
:103C200041F82500681CC5B2032DF3DB0EA9404600
:103C300007F079FE701CC6B20D2EFFF627AF03F019
:103C400007FA0549886A40F209410CF086FE11B076
:103C5000BDE8F08399D00108245200200000000044
:103C600088D30308A472040898EF01086C5200205E
:103C700025302E32643A25302E32643A25302E32E9
:103C80006400000070B588B0002005900690079091
:103C90000CF048FB054604209B4906229B4ECDE9CB
:103CA0000052CDE9021073693269F168B0680CF016
:103CB00077F93146486204200CF08EFE314600232D
:103CC0004EF66022486A19460CF040F94FF408712C
:103CD000002202233046406ACDE901320391009070
:103CE000B9234FF49B720521084601F00EFC884968
:103CF00008608849864800680BF068FF02200423AA
:103D00000246232100908248006801F021FD002234
:103D100011467F48006801F037FD01227E497C484A
:103D2000006801F031FD02227C497948006801F009
:103D30002BFD03227A497648006801F025FD1E21FB
:103D40007348006801F03AFD14217148006801F0E1
:103D50004AFD01216E48006801F079FD01216C489F
:103D6000006801F055FD02216948006801F086FDF8
:103D700002216748006801F098FD14230122002108
:103D8000084601F06DFC674908604FF080116548F6
:103D9000006801F0CAFC64480088012804D00228A9
:103DA00011D003282DD11DE060480088FDF703FDE8
:103DB00006465F49FDF770FB0546294659480068ED
:103DC00001F076FC1EE059480088FDF7F4FC064639
:103DD0005849FDF761FB054629465248006801F045
:103DE00067FC0FE051480088FDF7E5FC06465249A4
:103DF000FDF752FB054629464A48006801F058FC89
:103E000000E000BF00BF02214648006801F067FCE7
:103E100002214448006801F075FC4FF47F014148DD
:103E2000006801F082FC3F4801683948006801F0F1
:103E300008FB00231A464FF487714FF47F4001F0CE
:103E4000D3FB3E490860084601683148006801F02C
:103E5000DBFA3BA04FF4B0710C220223CDE9013212
:103E6000CDE903102948406A20239022BA2100900E
:103E700019200AF06CFF0446324920460AF0DBFFA5
:103E80004FF4004120460BF00DF82F480068FDF775
:103E9000F4FC05462A460B462CA105A817F082FC27
:103EA00005A920460AF0D9FF25A040F261110C2295
:103EB0000223CDE90132CDE903101448406A2023E2
:103EC000A022BA210090B9200AF041FF04461D4902
:103ED00020460AF0B0FF4FF47F0120460AF0E2FFCF
:103EE0001D480068FDF7C9FC05462A460B461BA184
:103EF00005A817F057FC05A920460AF0AEFF03F00D
:103F0000A7F808B070BD000039D401082452002081
:103F100060020020A4720408D3D3D30040404000C4
:103F200080808000680200203C02002056020020B1
:103F30006F1283386F12033817B7D136640200202E
:103F400000000000E0380408440200204D61783A87
:103F500025342E32660000004002002056616C3A83
:103F600025342E326600000000F0805111B1034963
:103F7000086001E002494860704700000404024004
:103F80000000024021B1026842F00102026004E038
:103F900002684FF6FE731A400260704701684FF6E0
:103FA000FE72114001600021016041608160C160CA
:103FB0004B49884208D14A490839496841F00F0104
:103FC000474A083A51608AE045491431884208D18D
:103FD00043490839496841F0F001414A083A5160C3
:103FE0007DE03F492831884208D13D490839496878
:103FF00041F470613A4A083A516070E038493C3106
:10400000884208D136490839496841F47041344A38
:10401000083A516063E032495031884208D1304952
:104020000839496841F470212D4A083A516056E038
:104030002B496431884208D129490839496841F43B
:104040007001274A083A516049E025497831884291
:1040500008D123490839496841F07061204A083A7B
:1040600051603CE01F49884206D1011F096841F0B8
:104070000F01021F116032E01A491431884208D141
:104080001849091F096841F0F001164A121F116012
:1040900025E014492831884208D11249091F0968CE
:1040A00041F470610F4A121F116018E00D493C3154
:1040B000884208D10B49091F096841F47041094A37
:1040C000121F11600BE007495031884207D10549A2
:1040D000091F096841F47021024A121F11607047DC
:1040E000080002400804024001460020002201F0BE
:1040F000805313B1054B1A6801E0054B1A6802EAB8
:1041000001030BB1012000E00020704700040240D1
:104110000000024010B50022026847F6F0739A438F
:104120000C6A8B6823430C6923434C6923438C69D5
:104130002343CC6923434C6A23438C6A23431A43A9
:104140000260CB6843600B6883604B68C36010BD3E
:104150004160704701460B480088814200DB002126
:10416000802000EB410081B2074830F8110030B1E7
:10417000481C054A32F8100008B1012070470020A1
:10418000FCE7000014F00108224A0020704701B546
:1041900002E00098401E009000980028F9D108BD68
:1041A00010B50124E102144801F021F928B92103D6
:1041B000114801F01CF900B91BE04FF400610E48F2
:1041C00001F015F9012806D101030B4801F00FF9A0
:1041D00008B902240DE04FF40061074801F007F927
:1041E00038B94FF48051044801F001F9012800D199
:1041F0000324204610BD0000000801402DE9FC47C3
:104200000E465FEA000978D001F0A8FF009090F810
:104210005470D0F85880456BC46C684601F0E8FFD4
:10422000B8F1000F04D0314648464246904761E05D
:10423000122E18D006DC082E43D0102E3CD0112EA2
:1042400006D112E0132E21D01D2E43D01E2E3DD0BC
:10425000202E4FDB17B148460EF05EF9B1B248464A
:1042600013F094FA60B3611C27E04DB3284601F0C7
:1042700075FF05462146019004F0EEF844192046EA
:1042800004F0A4F801462346012210E0C5B12846F7
:1042900001F064FF05462146019004F0DDF8441961
:1042A000204604F093F8014623464FF0FF3248467B
:1042B0000DF060FD01A81BE0611E484600F083FA86
:1042C00018E0BCB1611E484600F07DFA48460EF089
:1042D00023F90FE0484601F041FF0090012F0ED076
:1042E000012180F854102146484600F06CFA6846D7
:1042F00001F07EFF48460CF00EFABDE8FC87002175
:1043000080F85410F3E77CB54568044628460CF065
:104310001BFF0646214628460BF0B4FB002844D07C
:1043200020680F283DD004DC0B283FD00E2860D138
:1043300047E0A0F58070133804D0A0F580702D38C8
:1043400057D11DE028460CF0E5FA284601F006FF9B
:10435000009010F8561F81F004010170684601F0CA
:1043600047FF0021284614F091FE284601F0F6FE92
:104370000090D0F8840000210CF0B8FA68461DE0E7
:10438000E06860B1017A29B10168284600F0C6F8FA
:10439000012100E0022128460CF00BFA29E003215C
:1043A000F9E70121284614F071FE7CBD284601F092
:1043B000D5FE0190343001F043FE01A801F018FF52
:1043C00017E0B6B1E0684168002912DD01681B29D9
:1043D0000FD006DC09290CD00A290AD00D2904D1F6
:1043E00007E0212905D0222903D02846FFF706FF40
:1043F0007CBD20460BF082FE7CBDF0B587B00DF190
:10440000300E9EE8F0104FF0000E8DE8F05000F0F6
:1044100003F807B0F0BD0000F0B585B00D46DDE94A
:104420000D640F9FDDE90AC141F48051DFF870E0AF
:10443000CDE900C16037CDE902E729460BF0B0FDB8
:1044400005002AD001F08AFE1022314604900BF0BC
:10445000C9FC0498242213496030FCF775FF0499C5
:10446000012081F85500601C00D0012081F88800EF
:10447000002C00DC082424B20C8700204887486305
:1044800004A8641C01F0B4FE2146284612F0BDFFCA
:1044900018B928460BF066FE002505B02846F0BD89
:1044A000074300086003002038B504001ED062B145
:1044B00000230A4619460BF049FD0546204601F047
:1044C0004DFE0090C0F884500DE001F047FE0090D2
:1044D000D0F884000BF035FE00990020C1F884006C
:1044E00020460CF018F9684601F082FE38BD38B558
:1044F000002430B101F032FE0090846C684601F077
:1045000077FE204638BD10B5040006D000F05BF9F8
:104510002046BDE810400CF0FEB810BD2DE9F0417A
:1045200086B00C46060050D001F018FE0090406B9B
:1045300098B301F013FE03900098806E03F0D8FD4D
:10454000804630460BF0FBFF0746039802F07CFEE6
:104550000546009890F8601001F00301012916D07B
:1045600002290DD0416EC06A00680844241A641EF6
:10457000039805F021F90146002C0FDA002115E01F
:10458000781B401C00EBD070A4EB6004F0E7406E99
:10459000791B081A241A641CEAE713E0AC4205DC14
:1045A00002462146039805F0A7F80146304600F080
:1045B0000AF903A801F01CFE404603F099FD3046BD
:1045C0000CF0A9F8684601F013FE06B0BDE8F081D2
:1045D0002DE9F8431D46DDE9084916460F465FEA16
:1045E000000840D001F0BAFD2049009081652049C3
:1045F000C1650021C0E91271E0E90F650121047273
:1046000080F81A90017690F84C70684601F0F0FD41
:1046100087B1284612F043F90546304612F03FF9BB
:104620000CB1401C6D1C854200DD28460146404609
:1046300000F07DF8404616F053FB404601F08EFD39
:10464000009000F0ABF80B490978884205D100983A
:10465000C16C4046491C00F0B6F8684601F0C8FD40
:1046600040460CF058F8BDE8F883000091170108A7
:10467000E1AC0108C00200202DE9FF4F83B0934652
:10468000DDE9106A0C4607003AD01F4850F82600B2
:10469000FDF791F881462146FCF7FEFEFDF7EDF8A7
:1046A000DFF8688000224346FCF766FF19F0C8FF78
:1046B000FDF7C4F8054659464846FCF7EDFEFDF700
:1046C000DCF800224346FCF757FF19F0B9FFFDF76D
:1046D000B5F8044648460699FCF7DEFEFDF7CDF82E
:1046E00000224346FCF748FF19F0AAFFFDF7A6F8A1
:1046F000CDE9006A0346224629463846FFF768FF9F
:1047000007B0BDE8F08F0000207504080000E03F0E
:1047100038B50D46040009D001F020FD00908566F3
:1047200020460BF0F8FF684601F062FD38BD7CB50D
:104730000C4606002ED001F011FD0090B0F93810A3
:10474000458FA14223D012DD406B80B101F006FD00
:10475000019005F031F8A04206DD2146019803F0F2
:104760007BFE019A0021115401A801F041FD684629
:1047700001F03EFD611B3046491C12F046FE3046FA
:1047800001F0ECFC0090048730460BF0C4FF684653
:1047900001F02EFD7CBD002215F057BF38B505464F
:1047A000406B002468B101F0D9FC00900446E96C2C
:1047B00003F052FE204403F009FE0446684601F06F
:1047C00017FD204638BD1CB50C4601F0C7FC009013
:1047D000406BF0B101F0C2FC019004F0EDFF0099D4
:1047E00091F8542002B10122002C00DA0024844206
:1047F00000DD0446B1F93800801AA04200DA044610
:10480000C86CA04200D0CC640020086501A801F06B
:10481000EFFC684601F0ECFC1CBD000008B54FF44D
:104820007A7019F0B7FD022000F05CF8002844D03F
:104830000221224800F0D2FD28B121480068401C26
:104840001F4908600DE000201D4908601D490880CF
:104850001D4908801D490880FDF7A4FD022000F0D5
:104860003BF817480068B0F5FA6F26D900201449C4
:10487000086008F0CFFCFDF78DFD002114480AF018
:1048800097FD0121042008F0E1FF0120ADF80000B0
:1048900010208DF8030003208DF8020069460D48B2
:1048A00000F0C8FC01210B4800F0ACFD022000F034
:1048B00013F80421014800F0A3FD08BD00100140D9
:1048C0003802002000000020040000200600002024
:1048D000000C0040000801400149086070470000DA
:1048E0001404014001460020034A12680A400AB13C
:1048F000012000E0002070471404014000212349FA
:104900008279002A3AD00A46126803689A430B4615
:104910001A600A1D126803689A430B1D1A60027917
:1049200011440A6803681A430A60184A0832126878
:1049300003689A43154B08331A601A1D12680368FE
:104940009A43124B0C331A604279102A0ED11A1F67
:10495000126803681A430D4B08331A601A1D126857
:1049600003681A43094B0C331A600DE0074942797A
:1049700011440A6803681A430A6005E00279114489
:104980000A6803689A430A60704700000004014007
:1049900070B506460C4600202749087000212748BC
:1049A0000AF006FD002125480AF083FE0120244973
:1049B0000870244908702448007824490870012EA2
:1049C00006D0022E07D0032E08D0062E0CD108E008
:1049D0000120E07008E00220E07005E00320E070B4
:1049E00002E00620E07000BF00BF05202070A07824
:1049F00040F08000A0702078801EC1B2601CFDF7DE
:104A0000DDFC054629122078401E2154217865548A
:104A100040210F4800F0F6FC3220FFF7B8FB0122DE
:104A200040F227710B480AF076FF002240F2255130
:104A300008480AF070FF70BD200000200008004008
:104A4000220000202300002024000020D80700209E
:104A500000140140003801400149C860704700005F
:104A60000020024030B5044604254FF4302000F009
:104A70006FF80546042D17D10C48006940F002007C
:104A80000A49086108464461006940F04000086135
:104A90004FF4302000F05CF805460448006941F608
:104AA000FD71084001490861284630BD00200240E0
:104AB00004200B49C96801F0010109B101200EE091
:104AC0000749C96801F0040109B1022007E004495F
:104AD000C96801F0100109B1032000E0042070470B
:104AE000002002400348006940F08000014908614D
:104AF000704700000020024070B504460D460426B1
:104B0000F00200F025F80646042E11D1094800698C
:104B100040F00100074908612580F00200F018F814
:104B200006460448006941F6FE71084001490861E3
:104B3000304670BD002002400248034948600348E7
:104B4000486070472301674500200240AB89EFCDE4
:104B500000B502460423FFF7ABFF034603E0FFF76F
:104B6000A7FF0346521E012B01D1002AF7D102B93B
:104B70000523184600BD00002DE9F0430446C56832
:104B800087B090468946002003F0B0FA064625B16A
:104B9000287910B146F0020001E026F0020003F08F
:104BA000A5FA2069012558B1D4E902128DE8260042
:104BB000039563882288046841464846A0471EE062
:104BC000124F134B214638681B68427CE0689847B7
:104BD00030B9E088012801D0002001E03868806BFE
:104BE000A288E388A1680095CDE90410CDE90232DE
:104BF0000195638822884146484605F0D9FE07B0F2
:104C00003046BDE8F04303F071BA0000CC0200204A
:104C1000C40200201CB50024019401AC009400F0F3
:104C2000E7F81CBD2DE9FF4F83B0814606988A4600
:104C3000A0EB0A08109E00200090A2EB0904356842
:104C4000934654EA080018D02046FDF7C4FA0746F8
:104C50004046FDF7C0FA87420BDA204644468046BC
:104C60004846D14682465846DDF818B006900120E5
:104C70000090002C07DD204606E007B04846BDE85E
:104C8000F04F00F03BB96042A0420AD04846D946F6
:104C90006442C8F1000883464FF0FF37DDF818A0E2
:104CA00000E001275148B8F1000F11D004EBD47196
:104CB0004FEA610B01DACBF1000B4C480068807EB3
:104CC00088B3002F02DA30682044306000257BE092
:104CD00000990029016821D0897E11B10027804602
:104CE00015E007B05A4649465046BDE8F04F05F07A
:104CF000C1BF28466D1C15F085F938B9D8F80000F9
:104D000009EB0701406E4268504690477F1CA7425E
:104D1000EFDD6D1E356007B0BDE8F08F8A7E1AB1F9
:104D20000027804617E019E0486E5A46514603684E
:104D300007B04846BDE8F04F184728466D1C15F0EF
:104D400061F938B9D8F8001009EB0700496E4A68D4
:104D5000514690477F1CA742EFDDDAE700250FE0C0
:104D600008FB05B090FBF4F101EB0A00009951B18A
:104D70001E4A09EB05011268526E526890476D1C7D
:104D8000A542EDDDC7E7194909EB05030968496E3E
:104D90004A6801461846F1E708FB05B090FBF4F1BC
:104DA00001EB0A00019030683844306015F02AF9B0
:104DB00048B9009890B10D4809EB05010068406EB4
:104DC0004268019890476D1CA542E5DD3068002FD0
:104DD00001DA20443060C01B30609CE7034909EBD6
:104DE00005000968496E4A680199EBE7CC0200208A
:104DF0002DE9FF470F4640491646804609680C9842
:104E00001D460A7E012A1CD0A8EB0600791B50EA39
:104E100001031CD0A2F1010916F0EEFC00F5806040
:104E2000824604F076FF00FB09F4504604F076FF5A
:104E300000FB09F1002C0CDAC4F50070801240422E
:104E40000AE00090324639464046FFF7EBFEBDE8E7
:104E5000FF8704F50074A012002904DAC1F500717F
:104E600089124C4202E001F500718C12002804DD29
:104E7000411C01EBD171491003E000EBD0714910E6
:104E8000401E00EBD0704210002C04DD601C00EBD3
:104E9000D070401003E004EBD4704010641E04EBAB
:104EA000D47308EB0104ADF800403C18ADF80240A3
:104EB000A8EB02045B10B21AADF80440ADF808206C
:104EC0003144FC1AEA1AADF80C102844ADF80A2057
:104ED000ADF80E000023ADF806401A4604216846DE
:104EE00000F07AF83946404610F06EF9294630460F
:104EF00010F06AF9ABE70000CC020020064A136804
:104F00001A7E012A05D0521E02EBD272521000F016
:104F100005B85A6E52681047CC0200202DE9F05FA8
:104F20000646884640F2C32002FB00F14FF47A7037
:104F300091FBF0F702FB02F102EBD27001EB600B88
:104F40001446B118234A301B7F1C1268526E136836
:104F50000A4641469847012538E000BF05FB05F0A9
:104F600004FB040159451CDDBC4219DD194B06EB5D
:104F7000050AA6EB05091B68AAF1010208EB04016A
:104F80005B6E09F101001B689847124BAAF1010200
:104F9000A8EB04011B6809F101005B6E1B689847D0
:104FA000641E0C4B3219301B1B68924608EB05013E
:104FB0005B6E81461B689847064B5246A8EB05017D
:104FC0001B6848465B6E1B6898476D1CBD42C5DD7B
:104FD000BDE8F09FCC0200202DE9FF4F43F6FF749F
:104FE0000F46664283B09B46814600210BE000BF1E
:104FF00009EB8100B0F90200A04200DA0446B04299
:1050000000DD0646491CB942F2DB6748006840698A
:1050100000280DD0B0F906101A46A1EB0B01B142E1
:1050200000DA0E46B0F90200801AA04200DD044604
:10503000B4E0DFF878A100200546CAF8000088E057
:10504000781E854201DA6B1C00E0002309EB850C19
:1050500009EB8302BCF90200B2F90210A04244D16C
:10506000A14215D139F92330059A39F9251003EBFE
:10507000020C4D4A05981268084404EB0B01526E6D
:105080006045136801DA62462AE00246604627E07E
:105090002846A4464FF000087A1E0BE008B1401ED7
:1050A00000E0781E09EB8003B3F90230634504D1B8
:1050B00008F101089045F1DB2346A34248D01A1BB2
:1050C00039F92500A1EB040C059B92EA0C0F09D4D9
:1050D000354A184404EB0B011268526E13680246FD
:1050E000984735E00CF076FA32E0A14230D001DB8F
:1050F000A04203DDA0422BDBA14229DCE04688422E
:105100000ADC0346A04223DC0846A14220DBB8F9B2
:1051100000C0B2F9001008E00B46A14218DCA04222
:1051200016DBB2F900C0B8F90010E21AA1EB0C01CD
:1051300051430029A0EB030202DD01EB620102E012
:10514000A1EB6201491CC01A91FBF0F06044C9E771
:105150006D1CBD42FFF674AF0598009004EB0B0088
:10516000019000208046054613E01149B8F1000F78
:1051700031F915A009D0009901EB0A0208440A4947
:105180000968496E0B680199984788F001085046F4
:105190006D1C064909688D42E7DB641CB4427FF749
:1051A00048AF07B0BDE8F08FCC02002068060020B1
:1051B0004CC5002010B5002002F08EFF6FF07F403C
:1051C00002F08CFF012002F0C5FF002002F0CAFFB0
:1051D000002002F0D1FF002002F088FF04480068A0
:1051E00002F086FFBDE81040002002F08FBF0000F3
:1051F000C802002030B500228B071C0F0F2303FAD2
:1052000004F20B4B8C1053F824309343084C8D1050
:1052100044F8253023468C1053F824308C07240F93
:1052200000FA04F42343024C8D1044F8253030BDBD
:10523000080001402DE9F04102460025002600202B
:1052400000230024002791F803C00CF00F0591F80B
:1052500003C00CF0100CBCF1000F03D091F802C099
:105260004CEA050591F800C0BCF1000F31D014687C
:1052700000202BE04FF0010C0CFA00F3B1F800C055
:105280000CEA03069E4220D183004FF00F0C0CFA6B
:1052900003F7BC4305FA03FC4CEA040491F803C08D
:1052A000BCF1280F06D14FF0010C0CFA00FCC2F83B
:1052B00014C00AE091F803C0BCF1480F05D14FF0CB
:1052C000010C0CFA00FCC2F810C0401C0828D1D315
:1052D0001460B1F800C0BCF1FF0F34DD5468002049
:1052E0002EE000F1080C4FF0010808FA0CF3B1F8B9
:1052F00000C00CEA03069E4221D183004FF00F0C40
:105300000CFA03F7BC4305FA03FC4CEA040491F8D9
:1053100003C0BCF1280F05D100F1080C08FA0CF805
:10532000C2F8148091F803C0BCF1480F07D100F116
:10533000080C4FF0010808FA0CF8C2F81080401C65
:105340000828CED35460BDE8F0810000F0B50A46CD
:10535000002300240021002500F00046B6F1004F94
:1053600002D11D4EF16901E01B4E7168C0F3034587
:1053700083B200F44016B6F5401F08D121F07061E9
:10538000154E766826F07066134F7E6012E000F4CA
:105390008016B6F5801F06D1032606FA05F4A14350
:1053A00041F0706106E0460D360103FA06F6B1439E
:1053B00041F0706122B1460D360103FA06F6314321
:1053C00000F00046B6F1004F02D1034EF16101E05A
:1053D000014E7160F0BD0000000001400246002057
:1053E00093680B400BB1012000E00020704702469B
:1053F0000020D3680B400BB1012000E00020704773
:10540000416170470161704733B583B0040016D025
:1054100000F0A4FE0190456E01A800F0E9FE04989A
:1054200000F09CFE00908460684600F0E1FE0422DB
:1054300004A9284600F000FF20460BF06CF905B0E7
:1054400030BD33B583B0040016D000F087FE019064
:10545000856E01A800F0CCFE049800F07FFE00905D
:105460008460684600F0C4FE042204A9284600F0C7
:10547000E3FE20460BF04FF905B030BD2DE9F041B9
:1054800004460025D4E90007B0F5407F00D101258E
:10549000214638460AF0F6FA064615B1384612F0AB
:1054A0003FFB002E2FD02068052806D00B280ED0F9
:1054B0000F2806D0262821D10EE0384612F030FB06
:1054C0001CE03846E168BDE8F04112F0D5BE384630
:1054D000BDE8F04112F053BDE06805280ED1384612
:1054E0000BF001F8A168884205D038460AF0F2FFB7
:1054F000A168884202D1606813F02CFC2046BDE808
:10550000F0410AF0FBBDBDE8F081F0B585B00DF1CA
:10551000280C9CE8F0004FF0000C8DE8F01000F033
:1055200003F805B0F0BD00002DE9F04186B00DF1A3
:10553000300CDDE90F849CE8E0006C34DFF850C0EB
:1055400003948DE860100AF02BFD04001BD000F0DE
:10555000B0FE054600F0ADFE0646204600F0FEFD1A
:105560000490C0E91956002241460AF03BFC049819
:10557000302208493430FBF7E7FE0498A0F8787031
:1055800004A800F035FE06B02046BDE8F08100001A
:105590007D5400088403002003B583B000F0DEFDD5
:1055A000009060B1406A00F0D9FD014601900223ED
:1055B00004AA009800F090F901A800F019FE6846CE
:1055C00000F016FE05B000BD08B500280AD000F0B6
:1055D000C5FD00210090016180680BF09CF86846D1
:1055E00000F006FE08BD00002DE9F043814685B0BD
:1055F0001D4690460F462C2000F0DFFC060024D00C
:10560000780000F0DAFC04000ED0B8F1000F0BD0E7
:1056100055B1204600F0A2FD6A0041460090FBF71C
:1056200093FE684600F0E4FD304600F097FD09491E
:10563000029000F10C02446282E8A2020649016075
:105640000649416002A800F0D3FD05B03046BDE830
:10565000F0830000C5780108238401080F80010849
:105660002DE9F8430746984615460E46302000F0CF
:10567000A4FC040014D000F071FD0090C0E9057690
:105680008584094A4FF07E51C0F81C808162D2E9BE
:105690000012C0E9031205490160684600F0A8FD48
:1056A0002046BDE8F8830000B4030020FB84010815
:1056B00038B50D46002480B100F050FD0090806A9E
:1056C00029460446FCF720F904D0009885628068DA
:1056D0000BF021F8684600F08BFD204638BD38B548
:1056E0000D46002460B100F039FD0090C46AAC4260
:1056F00003D0C56280680BF00EF8684600F078FDB4
:10570000204638BD38B50D46002460B100F026FDB6
:105710000090046AAC4203D0056280680AF0FBFF87
:10572000684600F065FD204638BD38B50D460024BA
:1057300060B100F013FD0090C468AC4203D0C560B6
:1057400080680AF0E8FF684600F052FD204638BD48
:105750002DE9F8431D46DDF8208016460F4604006B
:1057600010D000F0FBFC0090C0F860804765C0E9F5
:105770001665684600F03CFD204612F0D1F920463F
:105780000AF0C9FFBDE8F883F8B515460E460700D4
:105790004FF0000410D000F0E1FC0090042D08D27E
:1057A00000EB8500446BB44203D0466338460AF0F0
:1057B000B2FF684600F01CFD2046F8BDF8B50D4666
:1057C00006004FF000040CD000F0C8FC0090446CC0
:1057D000AC4203D0456430460AF09DFF684600F0B5
:1057E00007FD2046F8BDF8B50D4606004FF0000451
:1057F0000CD000F0B3FC0090846CAC4203D0856404
:1058000030460AF088FF684600F0F2FC2046F8BDFA
:10581000F8B50D4606004FF0000416D000F09EFCCF
:105820000090B0F8781011F0010403D055B921F0C0
:10583000010102E035B141F00101A0F878103046D5
:105840000AF069FF684600F0D3FC2046F8BDF8B5C1
:105850000D4606004FF000040ED000F07FFC0090D3
:1058600090F86C40AC4204D080F86C5030460AF09E
:1058700052FF684600F0BCFC2046F8BDF8B50D4666
:1058800006004FF000040ED000F068FC009090F885
:105890007B40AC4204D080F87B5030460AF03BFF9E
:1058A000684600F0A5FC2046F8BDF8B50D46060098
:1058B0004FF000040ED000F051FC009090F87A40B8
:1058C000AC4204D080F87A5030460AF024FF684693
:1058D00000F08EFC2046F8BD2DE9F04104468068BA
:1058E0001D4617460E46002826D0D4E904029042F1
:1058F0000ED1521E6A4371193046FBF725FD20690F
:105900002A46401E05FB00603946FBF71DFD0EE0F0
:1059100005FB0013401C20612A4639461846FBF758
:1059200013FDE16819B12046BDE8F0410847A068C1
:10593000BDE8F04100F002B8BDE8F08110B58AB0D2
:10594000044600F00BFC09A904AACDE9002105AB2F
:10595000089006AA07A911F03EFB08A800F048FC31
:1059600002A920460AF030FDBDF808000799084456
:10597000ADF80800BDF80A0006990844ADF80A0021
:10598000BDF80C000599401AADF80C00BDF80E00EA
:105990000499401AADF80E0002A920460AF080FED4
:1059A0000AB010BD70B50C46054600F0FFF8A868B7
:1059B0002168C16261680163A1684163490707D535
:1059C000D0E90021C0E90012D0E90221C0E90212A9
:1059D000A18981842169002903D001DC4FF00001F5
:1059E000016270BD2DE9F0411E4617468846054606
:1059F00000F0DCF8AC686822414604F58670FBF7DD
:105A0000A3FC2846B8472846B047286980688047E5
:105A1000A062BDE8F081000010B5044600F0C6F8B1
:105A2000A0681149144AC0F8AC101049C0F8A81079
:105A30000F49C0F8B0100F49C0F8B8100021C0F8E5
:105A4000BC101368C0F8B4300C4BC0E93231516857
:105A5000C0F8C41030F8261F21F0030120F82A1BDB
:105A60000749416410BD0000F5A001083DA30108ED
:105A7000BDA001085F9A010858030020C59B0108DA
:105A8000D59F010810B5044600F090F8A4681048AE
:105A90001021C4F8E4000F48C4F8E8000E48C4F828
:105AA000EC000E48C4F8F0000D48C4F8A0000D4802
:105AB000C4F8A400D4F8C400C4F8FC00D4F89420BE
:105AC000204690471020A0630748606410BD000086
:105AD000913B010889590108ED5A00081D5C000836
